{
  "_format": "hh-sol-artifact-1",
  "contractName": "SuperHonk",
  "sourceName": "contracts/ISuperHonk.sol",
  "abi": [
    {
      "anonymous": false,
      "inputs": [
        {
          "indexed": true,
          "internalType": "address",
          "name": "source",
          "type": "address"
        }
      ],
      "name": "LoudSound",
      "type": "event"
    },
    {
      "inputs": [],
      "name": "count",
      "outputs": [
        {
          "internalType": "uint256",
          "name": "",
          "type": "uint256"
        }
      ],
      "stateMutability": "view",
      "type": "function"
    },
    {
      "inputs": [],
      "name": "honk",
      "outputs": [],
      "stateMutability": "nonpayable",
      "type": "function"
    }
  ],
  "bytecode": "0x608060405234801561001057600080fd5b506102a1806100206000396000f3fe608060405234801561001057600080fd5b50600436106100365760003560e01c806306661abd1461003b57806314274baa14610059575b600080fd5b610043610063565b604051610050919061014e565b60405180910390f35b610061610069565b005b60005481565b3373ffffffffffffffffffffffffffffffffffffffff163273ffffffffffffffffffffffffffffffffffffffff16036100d7576040517f08c379a00000000000000000000000000000000000000000000000000000000081526004016100ce906101c6565b60405180910390fd5b60016000808282546100e99190610215565b925050819055503273ffffffffffffffffffffffffffffffffffffffff167f99853bc2ae2eab6cfcf41e8d26548f62ad0f8dfb11c576c861f85796efea5a8a60405160405180910390a2565b6000819050919050565b61014881610135565b82525050565b6000602082019050610163600083018461013f565b92915050565b600082825260208201905092915050565b7f454f41206e6f7420616c6c6f7765640000000000000000000000000000000000600082015250565b60006101b0600f83610169565b91506101bb8261017a565b602082019050919050565b600060208201905081810360008301526101df816101a3565b9050919050565b7f4e487b7100000000000000000000000000000000000000000000000000000000600052601160045260246000fd5b600061022082610135565b915061022b83610135565b9250827fffffffffffffffffffffffffffffffffffffffffffffffffffffffffffffffff038211156102605761025f6101e6565b5b82820190509291505056fea2646970667358221220a0d860388eddcf6f0f5f2fbdecf1155a418f6bd5af180e520cf9888d68b745f464736f6c634300080d0033",
  "linkReferences": {},
  "deployedLinkReferences": {}
}